:020003004103B7
:02000B004106AC
:020013004109A1
:02001B00410C96
:02002300410F8B
:02002B00411280
:02003300411575
:02003B0041186A
:02004B00411E54
:02005300412149
:02005B0041243E
:02006300412733
:02007300412D1D
:020000000105F8
:0500050075817201E0AD
:0C003D00852421852522E4F524F52522E8
:1001AA00AF27113D438F03EF7F00FEE4FD31940139
:0101BA000D37
:10013100750B2985260985270885280A113DAF0AEF
:10014100150AEF6019438F01A80BE6FDAF09AE0850
:100151003194050B0509E50970E4050880E0010DFE
:100161007D4BAC28113DE527FEE526F5828E83E423
:0C01710093A805F6A30DDCF7AF2801658C
:1000E000E4FF30900AE5EF20E107E5EF30E6027F1C
:1000F00001EF70025100317D7F061165E52324FE7A
:10010000601614601724FE601724057017110D7F08
:1001100001116575EF12800E31AA800A3131800617
:100120001115800211257F011165E4F521F522806A
:01013000C707
:04000D00E4F54B22A9
:04001500754B032202
:04001D00754B0122FC
:04002500754B0222F3
:100194008F828E8375FFA075EF028521B78522B704
:0601A400EDF0538FFC2278
:04002D0053D9BF22C2
:0400350075FF8022B1
:04004D0075EF022227
:0400550075C19522BA
:04005D00758E082272
:04006F00758920224D
:0901BB00758D96858D8BD28E2284
:10017D00112D1135114D75D40375E10475E2401142
:07018D0055115D116F21BB4C
:0A0065008F08C20011753000FB2265
:1000750030C06720C25FE5C054F0603024F0604BAB
:1000850024D0603B24F0604324307045C2C5750C14
:1000950023750D4BE4F50EE5C254FEFFBF2009D2D2
:1000A500C1E5C230E032801AC2C1802CE50EC3948E
:1000B500285008A80CA6C2050E050CD2C18019301F
:1000C500C116A80DE6F5C2050D800DD200C2C4808B
:0A00D50007D200800053C0CDC2C066
:0100DF0022FE
:00000001FF
