:020003004103B7
:02000B004106AC
:020013004109A1
:02001B00410C96
:02002300410F8B
:02002B00411280
:02003300411575
:02003B0041186A
:02004B00411E54
:02005300412149
:02005B0041243E
:02006300412733
:02007300412D1D
:020000000105F8
:05000500758172017518
:0C003D00852421852522E4F524F52522E8
:1001DD00852708113D438F03110DE5087F00FEE4CF
:0301ED00FD21628F
:10019500750B2985260985270885280A113D110D26
:1001A500AF0A150AEF6019438F01A80BE6FDAF09E9
:1001B500AE083162050B0509E50970E4050880E024
:0101C5002217
:100075007F01903DFFE493643D7028E58215827011
:10008500021583E493B4C21BE582158270021583C1
:10009500E493B4A50EE582158270021583E493B44A
:1000A5001B011F30900AE5EF20E107E5EF30E6027E
:1000B5007F01EF7002510031C67F061165E52324EB
:1000C500FE601614601724FE601724057017110DC5
:1000D5007F01116575EF12800E31DD800A31958043
:1000E500061115800211257F011165E4F521F52220
:0200F50080C7C2
:04000D00E4F54B22A9
:04001500754B032202
:04001D00754B0122FC
:04002500754B0222F3
:100162008E0C8F0D8D0ED3E50D94FFE50C943D5052
:1001720007C3E50C94025002011D75FFA075EF0242
:100182008521B78522B7850D82850C83E50EF05354
:030192008FFC22BD
:04002D0053D9BF22C2
:0400350075FF8022B1
:04004D0075EF022227
:0400550075C19522BA
:04005D00758E082272
:04006F00758920224D
:0901F000758D96858D8BD28E224F
:1001C600112D1135114D75D40375E10475E24011F9
:0701D60055115D116F21F0CE
:0A0065008F08C20011F73000FB22E3
:1000F70030C06720C25FE5C054F0603024F0604B29
:1001070024D0603B24F0604324307045C2C5750F8E
:100117002375104BE4F511E5C254FEFFBF2009D249
:10012700C1E5C230E032801AC2C1802CE511C39408
:10013700285008A80FA6C20511050FD2C180193093
:10014700C116A810E6F5C20510800DD200C2C48002
:0A01570007D200800053C0CDC2C0E3
:01016100227B
:103DEE000001003DFF000200015509840001001092
:00000001FF
