:0A06A4008B3A8A3B893C8C3D8D3E69
:1006AE00E4FFFEF53FF540C3E540953EE53F953D41
:1006BE005022AB3AAA3BA93C120143FD1207A0748B
:1006CE0001253CF53CE4353BF53B0540E54070D754
:0406DE00053F80D381
:0106E20022F5
:1007A000ED6207E4FDEF30E00FEEC313FEEF13FF41
:1007B0006307086306848007EEC313FEEF13FF0D83
:0307C000BD08E28F
:0107C3002213
:0F083A00120882120026120804120896020849BA
:0A08820075B28375FF8075EF022246
:1000260075A41075A50275D40375E10575E2402225
:0F084900758C1B758A17438901438E02D2A92231
:10080400759810758D96538EF4438E08858D8B5391
:0D081400890F438920D28E43B810D2AC2248
:0307E500010F0001
:10003E0053D9BF12083AE4FF1206E3D2AFE51F60B0
:10004E000302012A2090F67F021206E37B017A005A
:10005E0079001205B08F0C7D80120661E51F6003DA
:10006E0002012AE4F50F753D00753E00753F087BD1
:10007E00007A00791012039B8F0C7D81120661E5C8
:10008E001F6003020114E50C6472607A7B017A0032
:10009E00791F1207148F0C7D82120661E51F7066A0
:1000AE00AF13AE12AD11AC101207458F0DE4FD1259
:1000BE00088CE51F7050E4F538F539C3E538940225
:1000CE00503F74202539F974003538FA7B01E53933
:1000DE002513FFE5383512FEE43511FDE43510FC2D
:1000EE007541007542201205498F0DE4FD12088CF2
:1000FE00E51F700D74202539F539E43538F5388053
:10010E00BA050F020074E51F7012E513FFE412002A
:10011E000E1208587F011206E302004BE51F700312
:10012E0002004B7F031206E3AF1F1207768F0CE41B
:05013E00F51F02004B5B
:1006E3008F0EE50E14600F1460111460192403704B
:1006F3001FC28CC29122C28CD29122C28C758C1BD8
:10070300758A17D28C22C28C758C38758A9ED28CCE
:0107130022C3
:03000B00020003ED
:03000300B2913285
:1007E8000225000001240002210000022800000167
:0507F8002700012300B1
:0605B0008B3A8A3B893CF6
:1005B600E4F5279002867480F0752800752901E419
:1005C600F5237F0E1207C9D299E52760FCE5246062
:1005D600FCE4FFAB2AE52C2401F9E4352BFAEF7C89
:1005E6000029F9EC3AFA120143AB3AAA3BA93C8F2F
:1005F600827583001201890FBF0ED8AB2AAA2BA9D8
:050606002C120143FF6E
:01060B0022CC
:10039B008B3A8A3B893CE4F5279002867481F07591
:1003AB002800752901E4F5237B017A02796D7F061C
:1003BB00FE1207D0D299E52760FCE52460FCAB2A3E
:1003CB00AA2BA92C90000212015C7D00FC9000036B
:1003DB0012015C7E007810C333CE33CED8F9FFEE1A
:1003EB004CFEEF4DFF90000112015CFDEF4DFFE461
:1003FB00FCFDAB3AAA3BA93C1201EEAB2AAA2BA9F6
:10040B002C90000512015CFE90000412015CFDEDC6
:10041B00FFAB3DAA3EA93FEE8FF01201ABAB2AAA70
:08042B002BA92C120143FF2252
:10071400E4F5279002867482F0752800752901E4B7
:10072400F5237402FFFE1207D0D299E52760FCE599
:100734002460FCAB2AAA2BA92C90020112015CFFB5
:010744002292
:06060C008B1C8A1D891EF3
:10061200E4F5279002867483F0E4FEEEC39F501E39
:10062200AB1CAA1DA91E8E8275830012015CFD748B
:10063200872EF582E43402F583EDF00E80DDEF249F
:1006420001F529E433F5281207C4D299E52760FCA5
:0E065200E52460FCAB2AAA2BA92C120143FF61
:010660002277
:10077600E4F5279002867484F0A3EFF075280075DF
:1007860029021207C4D299E52760FCE52460FCAB78
:0A0796002AAA2BA92C120143FF220E
:0C07C400E4F5237F017B017A02796DFED1
:1007D0007524018E258F26E4F521F5228B2A8A2B9C
:0507E000892CF5242224
:030023000204BF15
:1004BF00C0E0C083C082C0D075D000C000C001C0F2
:0504CF0002C003C0079C
:1004D400309838AF99C298E5247030C3E522952648
:1004E400E52195255018AB2AAA2BA92C85228285B3
:1004F4002183EF1201890522E52270020521E526F8
:10050400B52208E525B52103752401309924C29943
:10051400E527701EE523B52909E4B52805752701EB
:10052400801074862523F582E43402F583E0F5997E
:0205340005239D
:10053600D007D003D002D001D000D0D0D082D08353
:03054600D0E032D0
:0307FD00011F00D9
:0A088C00ED7006EF6003751F0322F4
:10066100ED247F600E14601724027036EF64706011
:10067100318011EF6470602AEF647260258005EFAC
:1006810064706004751F12227B017A0079207D005D
:100691007C021206A4EF65097003EE65086003751C
:0206A1001F1127
:0106A3002234
:0602EC008B2D8A2E892FE4
:1002F20090001AE07D00FCA3E07E007810C333CEAC
:1003020033CED8F9FFEE4CFEEF4DFF900019E0FD21
:10031200EF4DFFE48F338E32F531F530F533E532B0
:1003220054FEF532E4F531F53090000BE07D00FC2F
:10033200A3E07E007810C333CE33CED8F9FFEE4C63
:10034200FEEF4DFF90000AE0FDEF4DFFE48F378E88
:1003520036F535F534F537E53654FEF536E4F53540
:10036200F534900001E0FF900010E0B50727AF37A9
:10037200AE36AD35AC34AB33AA32A931A830C31294
:1003820001CA7011AF33AE32AD31AC30AB2DAA2EF3
:08039200A92F0201EE751F20E6
:01039A002240
:10000E00EF2401FFE433FEE50F6F7001EE60037520
:03001E001F21227D
:03080000011B20B9
:0A08960075C15543C18043E60122FD
:10082100E4F591538EBF75933875929F85939585A5
:09083100929443E68043910422F5
:100745008F3D8E3C8D3B8C3A9002477402F0A3742A
:10075500A5F0A374F1F0A3EFF078081201DBA3EF85
:10076500F07F061208767F01120867900221E0FFEC
:010775002261
:0E0549008B3A8A3B893C8F408E3F8D3E8C3D25
:100557009002477403F0A374A5F0A374F1F0A3EF1E
:10056700F078081201DBA3EFF0A3E542F0E4FFEF18
:10057700C39542E49541501EAB3AAA3BA93C8F82F2
:1005870075830012015CFE744D2FF582E43402F589
:1005970083EEF00F80D9E5422406FF1208767F012B
:0805A700120867900221E0FF39
:0105AF002229
:0F085800E4900247F07F061208767F01020867DE
:03003B0002022C92
:08022C00C0E0C083C082C0D015
:10023400C20230C2030202C4E5C054F02480604DFF
:1002440024C0601624E07074A201E433451BF5C297
:10025400C2C5751701751601806830C1222001627C
:10026400E516D39518501274462516F582E4340227
:10027400F583E0F5C205168049D2C4C2008043D29A
:10028400C4D2C5051AE51A703905198035E517C3B6
:100294009518742050122517F582E43402F583E58D
:1002A400C2F0D2C10517801A2517F582E43402F58D
:1002B40083E5C2F0C200C2C1D2C48006D202800269
:1002C400D20230021853C17F43C180C2C5C2C4C226
:0F02D400C1C200C202051AE51A70020519C2C0A4
:0902E300D0D0D082D083D0E032EB
:0C0876002000FD8F18D200C201D2C52264
:0F0867002000FD8F18D200D201D2C52000FD2243
:03000000020433C4
:0C043300787FE4F6D8FD75814202047A5F
:10014300BB010689828A83E0225002E722BBFE02BA
:09015300E32289828A83E49322ED
:10015C00BB010CE58229F582E5833AF583E0225058
:10016C0006E92582F8E622BBFE06E92582F8E222A2
:0D017C00E58229F582E5833AF583E49322BC
:10018900F8BB010DE58229F582E5833AF583E8F0AC
:10019900225006E92582C8F622BBFE05E92582C858
:0201A900F22240
:1001AB00BB010A89828A83F0E5F0A3F0225006F79F
:0F01BB0009A7F01922BBFE06F3E5F009F319229C
:1001CA00EB9FF5F0EA9E42F0E99D42F0E89C45F08B
:0101DA002202
:1001DB00E8600FECC313FCED13FDEE13FEEF13FF02
:0301EB00D8F12226
:1001EE00BB010789828A830202145005E9F80202D4
:0A01FE0008BBFE05E9F8020220220A
:10043F0002003EE493A3F8E493A34003F68001F295
:10044F0008DFF48029E493A3F85407240CC8C333BE
:10045F00C4540F4420C8834004F456800146F6DF8D
:10046F00E4800B01020408102040809007E5E47E31
:10047F00019360BCA3FF543F30E509541FFEE49382
:10048F00A360010ECF54C025E060A840B8E493A349
:10049F00FAE493A3F8E493A3C8C582C8CAC583CA74
:1004AF00F0A3C8C582C8CAC583CADFE9DEE780BE2C
:0108030000F4
:0C020800ECF608EDF608EEF608EFF62222
:0C021400ECF0A3EDF0A3EEF0A3EFF0225D
:0C022000ECF208EDF208EEF208EFF2221A
:00000001FF
