:100EEF00AFA775A70F75981075ADFF75AC9843AB8D
:060EFF000343AB408FA786
:010F050022C9
:100D7200E4FDFCABA7F5A7C3ED9FEC9E501930989C
:100D8200FD74002DF58274003CF583E599F0C2985C
:0E0D92000DBD00010C80E08BA7900000E0FF7B
:010DA0002230
:100DCD00E4FCFDABA7F5A7C3ED9FEC9E5019C299AE
:100DDD0074022DF582E43404F583E0F5990DBD0020
:090DED00010C2099E280FB8BA7A8
:010DF60022DA
:0A0F4E00AFA7E4F5A753D9BF8FA7A2
:010F58002276
:0C004700120F1B120EA3120EEF020DF799
:100F1B00AFA775A70F43A1C7E4F5A775FFA075EFA2
:030F2B00028FA78B
:010F2E0022A0
:100EA300AFA775A70F75D4CF43A41043A50875E169
:090EB3000375C70143C7408FA776
:010EBC002213
:0E0F4000AFA775A70F2094037F00227F012228
:10005600AEA775A70FEF14600B14600C2402700A8C
:0C006600C2938006D2938002B2938EA752
:01007200226B
:10007600120F40EF7003120ED7120F4E1200477F79
:1000860001120056D2AFE51E6003020231120F4084
:10009600EF70FAE4FF1200567B017A0479841204A9
:1000A600218F237D01120E67E51E60030202317B5C
:1000B600017A0479827FFF120AC474FFF510F511E4
:1000C600E5111511AE10700215104E70F37B017A12
:1000D6000479827F52120AC48F227D10120D2FE5F9
:1000E6001E60030202317B017A09791E1205098F0F
:1000F600227D20120D2FE51E600302023190092E8B
:10010600E0FF90091E6004E02F8002E004FF7B01FF
:100116007A09791E1200038F23AF237E007B007AB3
:100126000079241209B7E51E600302023185272DE6
:1001360085262C85252B85242A7DF17FA5120B4546
:100146008F22E4FD120D2FE51E6003020231E4F555
:1001560012752B00752C00752D087B007A0079240A
:10016600120A418F237D02120E67E51E600302010B
:10017600F4E52364026077120E888F237D03120E46
:1001860067E51E706985272D85262C85252B8524F8
:100196002A7DF17FA5120B458F22E4FD120D2FE576
:1001A6001E704B7B017A007901752DA5752EF185A0
:1001B600273285263185253085242FAD1BAC1A12B2
:1001C600026A8F22E4FD120D2FE51E70210512AF83
:1001D60027AE26AD25AC247B007A00790C1207F2F7
:1001E6008F227D60120D2FE51E7003020157E51E5A
:1001F6007039E527FFE4120F64E51E702E752BC2D9
:100206007B3D7DF17FA5120CDE8F22E4FD120D2FC2
:10021600E51E7017120F068F22E4FD120D2F7F01C7
:10022600120056E4FF120EBD02008CE51E7003029A
:10023600008CFF120EBDE51EB40A03120F06120F44
:1002460040EF601A7F021200567510F0751100E536
:10025600111511AE10700215104E60E280F1E4F532
:040266001E02008CE8
:030E4400014B005F
:060421008B288A29892ABC
:10042700E4F52BF52C90040204F0FF7E00120DCDAD
:100437007F027E00120D728F2CE52C6003020506E9
:10044700900001E0F54AE4900402F07F01FE120DEE
:10045700CDE54A2405FFE433FE120D72AB28AA2925
:10046700A92AE54A1206CAE4F52BE54A2405FFE462
:1004770033FEC3E52B9FEE6480F874809850237495
:1004870000252BF582E43400F583E0FFE52BF582A8
:10049700758300A3AB28AA29A92AEF1206DC052B2E
:1004A70080C8AB28AA29A92A90000312069DFF74C9
:1004B700017E00A807088005C333CE33CED8F9F5EF
:1004C700498E4890000512069D20E705E4F54B800C
:1004D70003754B01E4F52B7408252BF582E433F5FE
:1004E70083AB28AA29A92A12069DFF7482252BF51A
:1004F70082E43404F583EFF0052BE52BB402D8AF83
:010507002CC7
:0105080022D0
:060A41008B288A29892A96
:100A4700E4F52E9004027402F07F017E00120DCDB2
:100A5700E54B70057F06FE80047F087E00120D724D
:100A67008F2EE4F532F531F530F52F900001E0F5E2
:100A770032A3E0F531A3E0F530AF32AE31AD30ACA3
:100A87002FAB28AA29A92A12070FE4F532F531F569
:100A970030F52F900004E0F532A3E0F531E54B6027
:100AA70008A3E0F530A3E0F52FAF32AE31AD30AC9F
:0C0AB7002FAB2BAA2CA92D12070FAF2E7D
:010AC3002210
:100E8800E4FF9004027403F00F7E00120DCDE549D3
:0A0E98002402FFE43548FE120D723B
:010EA200222D
:060003008B288A29892ADE
:10000900E4FEFD9004027404F0EEC39F501EAB2879
:10001900AA29A92A8E8275830012069DFC74032ED3
:10002900F582E43404F583ECF00E80DDEF2401FF62
:0D003900E433FE120DCD7F017E00120D722A
:010046002297
:100EBD00E4F528FEEF547F4480900402F07F011288
:090ECD000DCD7F017E00120D72B3
:010ED60022F9
:050E4700011D00C103C4
:080AC4008F288B298A2A892B57
:100ACC00E4F52CF52DAF2C052C741E2FF582E43497
:100ADC0005F5837410F0AF2C052C741E2FF582E4F1
:100AEC003405F583E528F0E4F52EAB29AA2AA92BC9
:100AFC00852E8275830012069DFFE52EFDE52C2DBB
:100B0C00FDE433FC741E2DF58274053CF583EFF087
:100B1C00052EE52EB402D37F087E001205E0E528F1
:100B2C00B452137F037E0012074D8F2D90049FE06B
:080B3C00F515A3E0F51CAF2D37
:010B4400228E
:060509008B288A29892AD3
:10050F00E4F52BF52CAF2B052B741E2FF582E4345D
:10051F0005F5837420F07F087E001205E0E51525B0
:10052F001CFFE433CF2401CF3400FE12074D8F2C74
:10053F00E52C60030205DDF52BE515251CFFE433E3
:10054F00FEC3E52B9FEE6480F8748098501F749F54
:10055F00252BF582E43404F583E0AB28AA29A92AD8
:10056F00852B827583001206DC052B80CCE51C7071
:10057F000EAB28AA29A92A852B82F5831206DCAB9C
:10058F0028AA29A92A90000512069DFF74017E0052
:10059F00A807088005C333CE33CED8F9F51B8E1AC2
:1005AF0090000612069D540FFF74017E00A80708E5
:1005BF008005C333CE33CED8F9F5148E13900007D0
:1005CF0012069D20E705E4F51D8003751D01AF2C74
:0105DF0022F9
:040B4500AB05A9074C
:100B4900E4FAAE2CAD2BAC2A852D318E308D2F8C4D
:100B59002E0A241EF582E43405F5837430F00A74F4
:100B69001E2401F582E43405F583E9F00A741E2494
:100B790002F582E43405F583EBF00A741E2403F5CB
:100B890082E43405F583E531F00A741E2404F58204
:100B9900E43405F583E530F0741E2405F582E43468
:100BA90005F583E52FF07F087E001205E07F017EC1
:040BB9000012074DD2
:010BBD002215
:0A026A008B288A29892A8C2B8D2C01
:10027400E4F534F53BF53CAE31AD30AC2F85323886
:100284008E378D368C35E52C2532FBE52B3531FA4E
:10029400E43530F9E4352FF8E5192401FFE4351885
:1002A400FEE43517FDE43516FCC31206FE700C742B
:1002B400FE252CF52C74FF352BF52BD3E52C94005F
:1002C400E52B94005003020412E4F533AF330533F5
:1002D400741E2FF582E43405F5837470F0AF330592
:1002E40033741E2FF582E43405F583E52DF0AF3326
:1002F4000533741E2FF582E43405F583E52EF0AF43
:10030400330533741E2FF582E43405F583E538F0A4
:10031400AF330533741E2FF582E43405F583E537D6
:10032400F0AF330533741E2FF582E43405F583E50D
:1003340036F0D3E52C9514E52B9513400885133935
:1003440085143A8006852B39852C3AAF33053374EE
:100354001E2FF582E43405F583E53AF0AF33053317
:10036400741E2FF582E43405F583E539F07F087EA9
:10037400001205E07F017E0012074D8F34E53460E2
:100384000302040FD203E4F533C3E533953AE4954D
:10039400395029AB28AA29A92A853C82853B831296
:1003A400069DFF741E2533F582E43405F583EFF0D2
:1003B400053CE53C7002053B053380CDAF3AAE39D0
:1003C4001205E0C203C3E52C953AF52CE52B9539CB
:1003D400F52BD3E52C9400E52B940050030202BFC7
:1003E400AE39AF3AE4FCFDE5382FF538E5373EF594
:1003F40037ED3536F536EC3535F5357F017E0012AF
:10040400074D8F34E53470030202BF751E03E51EE9
:0C04140070087F01FE12074D8F34AF34DA
:0104200022B9
:0607F2008B288A29892AE8
:1007F800E4FBF52B8F2F8E2E8D2D8C2C0B241EF5C4
:1008080082E43405F5837460F00B741E2401F582CC
:10081800E43405F583E52FF00B741E2402F582E419
:100828003405F583E52EF0741E2403F582E43405BF
:10083800F583E52DF07F087E001205E0E4F533F539
:1008480032F531F530E51D70147F03FE12074D8F28
:100858002B90049FE0F533A3E0F532801B7F057EE3
:100868000012074D8F2B90049FE0F533A3E0F5327B
:10087800A3E0F531A3E0F530AF33AE32AD31AC30A3
:0B088800AB28AA29A92A12070FAF2BEA
:010893002242
:100CDE00E4241EF582E43405F5837440F0741E247A
:100CEE0001F582E43405F583EFF0741E2402F582DB
:100CFE00E43405F583EDF0741E2403F582E4340527
:100D0E00F583EBF0741E2404F582E43405F583E5D7
:100D1E002BF07F087E001205E07F017E0012074D4A
:010D2E0022A2
:100F060090051E7450F07F087E001205E07F017E7A
:040F16000012074D71
:010F1A0022B4
:030E4C00011E0084
:100D2F00ED601A24E0601124C0601724507033EF77
:100D3F006402602E751E0222EF60278008EF60228A
:100D4F008003EF6004751E0322AF0FAE0EAD0DAC26
:100D5F000CAB0BAA0AA909A808C31206FE600375FB
:030D6F001E04223D
:100E6700ED24FE600C14601224027014EF601180F0
:100E77000CEF600C640260088003EF6003751E07C7
:010E87002248
:0A09B7008E288F298B2A8A2B892CA9
:1009C100E5294528706A900929E0F530A3E0F52F63
:1009D100A3E0F52EE4F52D900491E0F534A3E0F5C4
:1009E10033A3E0F532E4F531900485E0FF9009216D
:1009F100E0B50738AF34AE33AD32AC31AB30AA2FEE
:100A0100A92EA82DC31206FE7022AF30AE2FAD2E37
:100A1100AC2DAB2AAA2BA92C12070FAF30AE2FADEC
:100A21002EAC2D8F198E188D178C1622751E08224B
:0F0A3100E529640245287004751E0A22751E0708
:010A40002293
:090F6400E5126F6003751E0922FD
:0F0E4F0001470001430001440001450001460036
:100DF700AFA775A70F75C94043C980E4F5A775D399
:100E07000C75D23875D30D75D24175D30B75D28059
:080E170075D30875D20C8FA7FA
:010E1F0022B0
:100C8900C202AEA7E4F5A7804120024675D30853F6
:100C9900D2DF75D30E75D20675D30BE5D254F04465
:100CA90008F5D275D30843D20175D309ADD2ED3019
:100CB900E3FA30E009E4F5D3AFD2D202800CED308B
:100CC900E20875D30A85D240054375D30843D20C8F
:040CD90080B78EA7AB
:010CDD0022F4
:04074D008E3D8F3E10
:10075100E4F53FC20085A741F5A7C3E53F953EE417
:10076100953D40030207E9806220006775D3085375
:10077100D2DF75D30E75D20675D30BE5D254F04492
:1007810008F5D275D30843D20175D309AFD2EF3042
:10079100E3FA30E02AE4FE8ED3749E2EF582E4342F
:1007A10004F583E582253FF582E43583F583E5D2BF
:1007B100F00EBE08E27408253FF53FD200800CEF31
:1007C10030E20875D30A85D240054475D30843D277
:1007D1000C8096C200C3E53F953EE4953D4003027F
:1007E100075B120C2502075B8541A790049EE0FF81
:0107F10022E5
:100C2500C201AFA7E4F5A775D30843D20C75D30865
:100C350043D22020030875D30E75D204800675D3E0
:100C45000E75D20575D30BE5D254F04408F5D2E400
:100C5500F5D3F5D275D30843D20120012475D30904
:100C6500AED2EE30E3FA30E004D201800CEE30E291
:100C75000875D30A85D242054575D30843D20C8041
:030C8500D98FA75D
:010C88002249
:0405E0008E3D8F3E7F
:1005E400E4FBFAC200C201ACA7F5A7C3EB953EEA4F
:1005F400953D400302069A75D30843D20C2001416D
:1006040075D30843D22020030875D30E75D2048015
:100614000675D30E75D20575D30BE5D254F0440894
:10062400F5D2E4FF8FD3741E2FF582E43405F583ED
:10063400E5822BF582E5833AF583E0F5D20FBF0816
:10064400E375D30843D20120002D75D309AFD2EF4F
:1006540030E3FA30E00B74082BFBE43AFAD2008062
:100664000EEF30E20A75D30A85D23F05468008753D
:10067400D30843D20C80D0300017C200C201C3EBB0
:10068400953EEA953D40030205EF120C89EF020501
:08069400EFD2010205EF8CA773
:01069C00223B
:080E5E00C104014C00014D002C
:100ED700E4F5A753D9BF120F59120F2F120E201284
:080EE7000DA1D2AFC29380FE01
:100E2000AFA7E4F5A7F5D8F5D975DC49F5F9F5FADA
:100E3000754E9C754F40854FEB854EEC43E608D2CE
:030E4000DE8FA79B
:010E4300228C
:0A0F5900AFA775A70F75A1C78FA7FA
:010F6300226B
:100F2F00AFA775A70F75A50875D4FF75C7418FA714
:010F3F00228F
:100DA100AFA775A70F75C98043C940E4F5A775D3EF
:100DB1000C75D23875D30D75D24175D30B75D280B0
:0B0DC10075D30875D20C43E6808FA7A5
:010DCC002204
:030053000208940C
:0B089400C0E0C0D075D000C006C00757
:10089F00AFA775A70030DA76C2DA7440254FF54F4F
:1008AF00749C354EF54E854FEB854EEC3004087534
:1008BF00D30843D201805AA294E433FEE54C701161
:1008CF00BE010E75D30843D22075D30E75D20280A8
:1008DF0028E54C64017011EE700E75D30843D220D9
:1008EF0075D30E75D2038011E54CB5061D75D3086F
:1008FF0053D2DF75D30E75D20175D30BE5D254F0F9
:10090F004401F5D275D30843D2018E4C800353D8DE
:03091F00448FA75B
:09092200D007D006D0D0D0E0329D
:03007300020BBEBF
:0F0BBE00C0E0C0D075D000C004C005C006C0079D
:100BCD00AFA775A70075D309AED275D308ADD27591
:100BDD00D30EACD2EE30E32B30E20C75D30A85D2B6
:100BED0021054DD204801CEE30E018C204ED20E545
:100BFD0012BC010F75D300AED2BE0502D293BE0456
:0B0C0D0002C29375D30843D20C8FA7DE
:0D0C1800D007D006D005D004D0D0D0E032F7
:0300000002092BC7
:0C092B00787FE4F6D8FD75814F02097258
:10069D00BB010CE58229F582E5833AF583E0225012
:1006AD0006E92582F8E622BBFE06E92582F8E2225C
:0D06BD00E58229F582E5833AF583E4932276
:1006CA00BB010689828A83F0225002F722BBFE010F
:0206DA00F32209
:1006DC00F8BB010DE58229F582E5833AF583E8F054
:1006EC00225006E92582C8F622BBFE05E92582C800
:0206FC00F222E8
:1006FE00EB9FF5F0EA9E42F0E99D42F0E89C45F052
:01070E0022C8
:10070F00BB010789828A830207355005E9F8020782
:0A071F0029BBFE05E9F8020741229C
:10093700020076E493A3F8E493A34003F68001F260
:1009470008DFF48029E493A3F85407240CC8C333C1
:10095700C4540F4420C8834004F456800146F6DF90
:10096700E4800B0102040810204080900E44E47ECE
:10097700019360BCA3FF543F30E509541FFEE49385
:10098700A360010ECF54C025E060A840B8E493A34C
:10099700FAE493A3F8E493A3C8C582C8CAC583CA77
:1009A700F0A3C8C582C8CAC583CADFE9DEE780BE2F
:010E6600008B
:0C072900ECF608EDF608EEF608EFF622FC
:0C073500ECF0A3EDF0A3EEF0A3EFF02237
:0C074100ECF208EDF208EEF208EFF222F4
:00000001FF
