:0A0515008B188A19891A8C1B8D1CA3
:10051F00E4FFFEF51DF51EC3E51E951CE51D951B9D
:10052F005022AB18AA19A91A120026FD1205E07461
:10053F0001251AF51AE43519F519051EE51E70D7B0
:04054F00051D80D333
:010553002285
:1005E000ED6207E4FDEF30E00FEEC313FEEF13FF03
:1005F0006307086306848007EEC313FEEF13FF0D45
:03060000BD08E250
:0106030022D4
:0C067E0012068A1206711206450206627E
:0A068A0075B28375FF8075EF022240
:0D06710075A41075A50275E10575E2402223
:0F066200758C1B758A17438901438E02D2A9221A
:10064500759810758D96538EF4438E08858D8B5352
:0D065500890F438920D28E43B810D2AC2209
:03062500010F00C2
:1003590053D9BF12067EE4FF120554D2AFE51F70D0
:10036900612090F97F021205547B017A007900120D
:1003790003E08F0C7D80120491E51F7045E4F50FB1
:10038900751B00751C00751D087B007A0079101219
:1003990001AB8F0C7D81120491E51F701AE50C6485
:1003A9007260147B017A00791F1205858F0C7D829A
:1003B900120491E51F60C9E51F70077F01120554FA
:1003C900809BE51F60977F03120554AF1F1205B686
:0703D9008F0CE4F51F808684
:100554008F0EE50E14600F146011146019240370DB
:100564001FC28CC29122C28CD29122C28C758C1B68
:10057400758A17D28C22C28C758C38758A9ED28C5F
:010584002254
:03000B00020003ED
:03000300B2913285
:100628000225000001240002210000022800000128
:05063800270001230072
:0603E0008B188A19891A2E
:1003E600E4F52790023A7480F0752800752901E437
:1003F600F5237F0E120609D299E52760FCE52460F5
:10040600FCE4FFAB2AE52C2401F9E4352BFAEF7C5A
:100416000029F9EC3AFA120026AB18AA19A91A8F84
:100426008275830012006C0FBF0ED8AB2AAA2BA9C7
:050436002C120026FF5E
:01043B00229E
:1001AB008B188A19891AE4F52790023A7481F07535
:1001BB002800752901E4F5237B017A0279217F065A
:1001CB00FE120610D299E52760FCE52460FCAB2AF1
:1001DB00AA2BA92C90000212003F7D00FC9000037B
:1001EB0012003F7E007810C333CE33CED8F9FFEE2A
:1001FB004CFEEF4DFF90000112003FFDEF4DFFE471
:10020B00FCFDAB18AA19A91A1200BEAB2AAA2BA97E
:10021B002C90000512003FFE90000412003FFDEDF4
:10022B00FFAB1BAA1CA91DEE8FF012008EAB2AAAE6
:08023B002BA92C120026FF2262
:10058500E4F52790023A7482F0752800752901E494
:10059500F5237402FFFE120610D299E52760FCE5EB
:1005A5002460FCAB2AAA2BA92C90020112003FFF64
:0105B5002223
:06043C008B388A39893A71
:10044200E4F52790023A7483F0E4FEEEC39F501E57
:10045200AB38AA39A93A8E8275830012003FFD7427
:100462003B2EF582E43402F583EDF00E80DDEF24BD
:1004720001F529E433F528120604D299E52760FC38
:0E048200E52460FCAB2AAA2BA92C120026FF51
:010490002249
:1005B600E4F52790023A7484F0A3EFF075280075ED
:1005C6002902120604D299E52760FCE52460FCABFB
:0A05D6002AAA2BA92C120026FF22EE
:0C060400E4F5237F017B017A027921FEDE
:100610007524018E258F26E4F521F5228B2A8A2B5D
:05062000892CF52422E5
:030023000202CF07
:1002CF00C0E0C083C082C0D075D000C000C001C0E4
:0502DF0002C003C0078E
:1002E400309838AF99C298E5247030C3E52295263A
:1002F400E52195255018AB2AAA2BA92C85228285A5
:100304002183EF12006C0522E52270020521E52607
:10031400B52208E525B52103752401309924C29935
:10032400E527701EE523B52909E4B52805752701DD
:100334008010743A2523F582E43402F583E0F599BC
:0203440005238F
:10034600D007D003D002D001D000D0D0D082D08345
:03035600D0E032C2
:03063D00011F009A
:1004D400ED24A0601C24CF601124FB601B24067053
:1004E4002FEF6462602A751F0222EF64606021802E
:1004F4000CEF6460601A8005EF64606004751F038C
:1005040022E509650B7004E508650A6003751F049C
:0105140022C4
:10049100ED247F600E14601724027036EF647060E3
:1004A100318011EF6470602AEF647260258005EF7E
:1004B10064706004751F12227B017A0079207D002F
:1004C1007C02120515EF65097003EE65086003757E
:0204D1001F11F9
:0104D3002206
:0600FC008B2D8A2E892FD6
:1001020090001AE07D00FCA3E07E007810C333CE9D
:1001120033CED8F9FFEE4CFEEF4DFF900019E0FD13
:10012200EF4DFFE48F338E32F531F530F533E532A2
:1001320054FEF532E4F531F53090000BE07D00FC21
:10014200A3E07E007810C333CE33CED8F9FFEE4C55
:10015200FEEF4DFF90000AE0FDEF4DFFE48F378E7A
:1001620036F535F534F537E53654FEF536E4F53532
:10017200F534900001E0FF900010E0B50727AF379B
:10018200AE36AD35AC34AB33AA32A931A830C31286
:1001920000AD7011AF33AE32AD31AC30AB2DAA2E03
:0801A200A92F0200BE751F2009
:0101AA002232
:10000E00EF2401FFE433FEE50F6F7001EE60037520
:03001E001F21227D
:04064000C100C10133
:03000000020243B6
:0C024300787FE4F6D8FD75813A02028A4B
:10002600BB010689828A83E0225002E722BBFE02D8
:09003600E32289828A83E493220B
:10003F00BB010CE58229F582E5833AF583E0225076
:10004F0006E92582F8E622BBFE06E92582F8E222C0
:0D005F00E58229F582E5833AF583E49322DA
:10006C00F8BB010DE58229F582E5833AF583E8F0CA
:10007C00225006E92582C8F622BBFE05E92582C876
:02008C00F2225E
:10008E00BB010A89828A83F0E5F0A3F0225006F7BD
:0F009E0009A7F01922BBFE06F3E5F009F31922BA
:1000AD00EB9FF5F0EA9E42F0E99D42F0E89C45F0A9
:0100BD002220
:1000BE00BB010789828A830200E45005E9F8020039
:0A00CE00D8BBFE05E9F80200F0229D
:10024F00020359E493A3F8E493A34003F68001F269
:10025F0008DFF48029E493A3F85407240CC8C333B0
:10026F00C4540F4420C8834004F456800146F6DF7F
:10027F00E4800B0102040810204080900625E47EE4
:10028F00019360BCA3FF543F30E509541FFEE49374
:10029F00A360010ECF54C025E060A840B8E493A33B
:1002AF00FAE493A3F8E493A3C8C582C8CAC583CA66
:1002BF00F0A3C8C582C8CAC583CADFE9DEE780BE1E
:0106440000B5
:0C00D800ECF608EDF608EEF608EFF62254
:0C00E400ECF0A3EDF0A3EEF0A3EFF0228F
:0C00F000ECF208EDF208EEF208EFF2224C
:00000001FF
