:0A0792008B3A8A3B893C8C3D8D3E7A
:10079C00E4FFFEF53FF540C3E540953EE53F953D52
:1007AC005022AB3AAA3BA93C12016CFD12085D74B5
:1007BC0001253CF53CE4353BF53B0540E54070D765
:0407CC00053F80D392
:0107D0002206
:10085D00ED6207E4FDEF30E00FEEC313FEEF13FF83
:10086D006307086306848007EEC313FEEF13FF0DC5
:03087D00BD08E2D1
:010880002255
:0F09340012097F1209241208C11209890209430E
:0A097F0075B28375FF8075EF022248
:1009240075A41075A50275D40375E10575E240221E
:0F094300758C1B758A17438901438E02D2A92236
:1008C100759810758D96538EF4438E08858D8B53D4
:0D08D100890F438920D28E43B810D2AC228B
:0308A200010F0043
:10003E0053D9BF120934E4FF1207D1D2AFE51F60C6
:10004E00030201512090F67F021207D17B017A0044
:10005E00790012069E8F0C7D8012074FE51F6003FC
:10006E0002015112002674FFF514F515E51515154C
:10007E00AE14700215144E70F31200268F0D7D050E
:10008E001208F7E51F6003020151E4F50F753D00FC
:10009E00753E00753F087B007A00791012048E8F32
:1000AE000C7D8112074FE51F600302013BE50C64D6
:1000BE0072607A7B017A00791F1208028F0C7D82A2
:1000CE0012074FE51F7066AF13AE12AD11AC1012D2
:1000DE00063C8F0DE4FD1208F7E51F7050E4F5386D
:1000EE00F539C3E5389402503F74202539F9740070
:1000FE003538FA7B01E5392513FFE5383512FEE474
:10010E003511FDE43510FC75410075422012025583
:10011E008F0DE4FD1208F7E51F700D74202539F5DB
:10012E0039E43538F53880BA050F02009BE51F70AB
:10013E0012E513FFE412000E1209527F011207D1CD
:10014E0002004BE51F600F7F031207D1AF1F12088D
:0E015E00338F0CE4F51F30900302004B80F845
:1007D1008F0EE50E14600F1460111460192403705C
:1007E1001FC28CC29122C28CD29122C28C758C1BE9
:1007F100758A17D28C22C28C758C38758A9ED28CE0
:0108010022D4
:03000B0002090ED9
:10090E00C0E0C0D0E50E64026005E50EB40302B28D
:06091E0091D0D0D0E032C0
:1008A50002250000012400022100000228000001A9
:0508B5002700012300F3
:06069E008B3A8A3B893C07
:1006A400E4F5279002867480F0752800752901E42A
:1006B400F5237F0E120886D299E52760FCE52460B5
:1006C400FCE4FFAB2AE52C2401F9E4352BFAEF7C9A
:1006D4000029F9EC3AFA12016CAB3AAA3BA93C8F17
:1006E400827583001201B20FBF0ED8AB2AAA2BA9C0
:0506F4002C12016CFF57
:0106F90022DE
:10048E008B3A8A3B893CE4F5279002867481F0759D
:10049E002800752901E4F5237B017A02796D7F0628
:1004AE00FE12088DD299E52760FCE52460FCAB2A8C
:1004BE00AA2BA92C9000021201857D00FC9000034E
:1004CE001201857E007810C333CE33CED8F9FFEEFD
:1004DE004CFEEF4DFF900001120185FDEF4DFFE444
:1004EE00FCFDAB3AAA3BA93C120217AB2AAA2BA9D8
:1004FE002C900005120185FE900004120185FDED81
:10050E00FFAB3DAA3EA93FEE8FF01201D4AB2AAA53
:08051E002BA92C12016CFF2235
:10080200E4F5279002867482F0752800752901E4C8
:10081200F5237402FFFE12088DD299E52760FCE5EC
:100822002460FCAB2AAA2BA92C900201120185FF9D
:0108320022A3
:0606FA008B1C8A1D891E05
:10070000E4F5279002867483F0E4FEEEC39F501E4A
:10071000AB1CAA1DA91E8E82758300120185FD7473
:10072000872EF582E43402F583EDF00E80DDEF24B0
:1007300001F529E433F528120881D299E52760FCF8
:0E074000E52460FCAB2AAA2BA92C12016CFF49
:01074E002288
:10083300E4F5279002867484F0A3EFF07528007521
:100843002902120881D299E52760FCE52460FCABFC
:0A0853002AAA2BA92C12016CFF2227
:0C088100E4F5237F017B017A02796DFE13
:10088D007524018E258F26E4F521F5228B2A8A2BDE
:05089D00892CF5242266
:030023000205B221
:1005B200C0E0C083C082C0D075D000C000C001C0FE
:0505C20002C003C007A8
:1005C700309838AF99C298E5247030C3E522952654
:1005D700E52195255018AB2AAA2BA92C85228285BF
:1005E7002183EF1201B20522E52270020521E526DB
:1005F700B52208E525B52103752401309924C29950
:10060700E527701EE523B52909E4B52805752701F7
:10061700801074862523F582E43402F583E0F5998A
:020627000523A9
:10062900D007D003D002D001D000D0D0D082D0835F
:03063900D0E032DC
:0308BA00011F001B
:1008F700ED600D24FB700FEF6403600A751F022281
:07090700EF6003751F0322DE
:10074F00ED247F600E14601724027036EF64706022
:10075F00318011EF6470602AEF647260258005EFBD
:10076F0064706004751F12227B017A0079207D006E
:10077F007C02120792EF65097003EE65086003753E
:02078F001F1138
:010791002245
:0603DF008B2D8A2E892FF0
:1003E50090001AE07D00FCA3E07E007810C333CEB8
:1003F50033CED8F9FFEE4CFEEF4DFF900019E0FD2E
:10040500EF4DFFE48F338E32F531F530F533E532BC
:1004150054FEF532E4F531F53090000BE07D00FC3B
:10042500A3E07E007810C333CE33CED8F9FFEE4C6F
:10043500FEEF4DFF90000AE0FDEF4DFFE48F378E94
:1004450036F535F534F537E53654FEF536E4F5354C
:10045500F534900001E0FF900010E0B50727AF37B5
:10046500AE36AD35AC34AB33AA32A931A830C312A0
:1004750001F37011AF33AE32AD31AC30AB2DAA2ED6
:08048500A92F020217751F20C8
:01048D00224C
:10000E00EF2401FFE433FEE50F6F7001EE60037520
:03001E001F21227D
:0308BD00011B20FC
:0A09890075C15543C18043E6012209
:1008DE00E4F591538EBF75933875929F85939585E8
:0908EE00929443E6804391042238
:1000260090024774051209617F011209709002213E
:03003600E0FF22C6
:10063C008F3D8E3C8D3B8C3AE4FF7E02FDFCAB3D46
:10064C00AA3CA93BA83AC31201F3400FE47FFF7EFA
:10065C003FFDFCA83AD31201F3400890022174012B
:10066C00F080299002477402F0A374A5F0A374F1F2
:10067C00F0E53DFFA3EFF0AE3CAD3BAC3A78081291
:10068C000204A3EF1209617F01120970900221E0AC
:02069C00FF223B
:0E0255008B3A8A3B893C8F408E3F8D3E8C3D1C
:10026300E4FF7E02FDFCAB40AA3FA93EA83DC312BA
:1002730001F3403EE47FFF7E3FFDFCA83DD3120126
:10028300F3502FE5422540FFE541353FFEE4353E7F
:10029300FDE4353DFCEF24FFFFEE34FFFEED34FFBC
:1002A300FDEC34FFFCE47BFF7A3FF9F8C31201F362
:1002B30050089002217401F0805C9002477403F0AF
:1002C300A374A5F0A374F1F0E540FFA3EFF0AE3FF4
:1002D300AD3EAC3D7808120204A3EFF0A3E542F073
:1002E300E4FFEFC39542E49541501EAB3AAA3BA904
:1002F3003C8F82758300120185FE744D2FF582E4D5
:100303003402F583EEF00F80D9E5422406FF12098B
:0B031300647F01120970900221E0FFDE
:01031E0022BC
:0F095200E4900247F07F061209647F01020970EA
:03003B0002031F9E
:08031F00C0E0C083C082C0D021
:10032700C20230C2030203B7E5C054F02480604D17
:1003370024C0601624E07074A201E433451BF5C2A3
:10034700C2C5751701751601806830C12220016288
:10035700E516D39518501274462516F582E4340233
:10036700F583E0F5C205168049D2C4C2008043D2A6
:10037700C4C200051AE51A703905198035E517C397
:100387009518742050122517F582E43402F583E599
:10039700C2F0D2C10517801A2517F582E43402F599
:1003A70083E5C2F0C200C2C1D2C48006D202800275
:1003B700D20230021853C17F43C180C2C5C2C4C232
:0F03C700C1C200C202051AE51A70020519C2C0B0
:0903D600D0D0D082D083D0E032F7
:03096100F07F061E
:0C0964002000FD8F18D200C201D2C52275
:0F0970002000FD8F18D200D201D2C52000FD2239
:03000000020526D0
:0C052600787FE4F6D8FD75814202056D77
:10016C00BB010689828A83E0225002E722BBFE0291
:09017C00E32289828A83E49322C4
:10018500BB010CE58229F582E5833AF583E022502F
:1001950006E92582F8E622BBFE06E92582F8E22279
:0D01A500E58229F582E5833AF583E4932293
:1001B200F8BB010DE58229F582E5833AF583E8F083
:1001C200225006E92582C8F622BBFE05E92582C82F
:0201D200F22217
:1001D400BB010A89828A83F0E5F0A3F0225006F776
:0F01E40009A7F01922BBFE06F3E5F009F3192273
:1001F300EB9FF5F0EA9E42F0E99D42F0E89C45F062
:0102030022D8
:10020400E8600FECC313FCED13FDEE13FEEF13FFD8
:03021400D8F122FC
:10021700BB010789828A8302023D5005E9F8020281
:0A02270031BBFE05E9F8020249228E
:1005320002003EE493A3F8E493A34003F68001F2A1
:1005420008DFF48029E493A3F85407240CC8C333CA
:10055200C4540F4420C8834004F456800146F6DF99
:10056200E4800B01020408102040809008A2E47E7F
:10057200019360BCA3FF543F30E509541FFEE4938E
:10058200A360010ECF54C025E060A840B8E493A355
:10059200FAE493A3F8E493A3C8C582C8CAC583CA80
:1005A200F0A3C8C582C8CAC583CADFE9DEE780BE38
:0108C0000037
:0C023100ECF608EDF608EEF608EFF622F9
:0C023D00ECF0A3EDF0A3EEF0A3EFF02234
:0C024900ECF208EDF208EEF208EFF222F1
:00000001FF
