:10007600120CD6120CC47F01120C7FD2AFE51E60A3
:1000860003020228120CCDEF70FAE4FF120C7F7BFC
:10009600017A0479841204188F237D01120BEBE593
:1000A6001E60030202287B017A0479827FFF12090F
:1000B6005974FFF510F511E5111511AE1070021502
:1000C600104E70F37B017A0479827F521209598FA0
:1000D600227D10120B0BE51E60030202287B017ABB
:1000E60009791E1205008F227D20120B0BE51E607A
:1000F6000302022890092EE0FF90091E6004E02FFB
:100106008002E004FF7B017A09791E1200038F2327
:10011600AF237E007B007A00792412084CE51E602E
:100126000302022885272D85262C85252B85242A42
:100136007DF17FA51209DA8F22E4FD120B0BE51E75
:100146006003020228E4F512752B00752C00752D4C
:10015600087B007A0079241208D68F237D02120BC1
:10016600EBE51E60030201EBE523640260771200F3
:10017600568F237D03120BEBE51E706985272D85AF
:10018600262C85252B85242A7DF17FA51209DA8F59
:1001960022E4FD120B0BE51E704B7B017A00790100
:1001A600752DA5752EF18527328526318525308555
:1001B600242FAD1BAC1A1202618F22E4FD120B0B29
:1001C600E51E70210512AF27AE26AD25AC247B00B7
:1001D6007A00790C1206878F227D60120B0BE51EC2
:1001E600700302014EE51E7039E527FFE4120CBBD1
:1001F600E51E702E752BC27B3D7DF17FA5120ABAD6
:100206008F22E4FD120B0BE51E7017120C568F227F
:10021600E4FD120B0B7F01120C7FE4FF120C0C02A3
:100226000083E51E7003020083FF120C0CE51EB46A
:100236000A03120C56120CCDEF601A7F02120C7FC5
:100246007510F0751100E5111511AE10700215103C
:0B0256004E60E280F1E4F51E02008320
:030C6B0001400045
:060418008B288A29892AC5
:10041E00E4F52BF52C90040204F0FF7E00120BA3E2
:10042E007F027E00120B7A8F2CE52C60030204FDF6
:10043E00900001E0F53FE4900402F07F01FE120B04
:10044E00A3E53F2405FFE433FE120B7AAB28AA295D
:10045E00A92AE53F120604E4F52BE53F2405FFE447
:10046E0033FEC3E52B9FEE6480F87480985023749E
:10047E0000252BF582E43400F583E0FFE52BF582B1
:10048E00758300A3AB28AA29A92AEF120616052BFD
:10049E0080C8AB28AA29A92A9000031205D7FF7499
:1004AE00017E00A807088005C333CE33CED8F9F5F8
:1004BE003E8E3D9000051205D720E705E4F54080FD
:1004CE0003754001E4F52B7408252BF582E433F512
:1004DE0083AB28AA29A92A1205D7FF7482252BF5EA
:1004EE0082E43404F583EFF0052BE52BB402D8AF8C
:0104FE002CD1
:0104FF0022DA
:0608D6008B288A29892A03
:1008DC00E4F52E9004027402F07F017E00120BA34B
:1008EC00E54070057F06FE80047F087E00120B7ABF
:1008FC008F2EE4F532F531F530F52F900001E0F54F
:10090C0032A3E0F531A3E0F530AF32AE31AD30AC0F
:10091C002FAB28AA29A92A120649E4F532F531F59C
:10092C0030F52F900004E0F532A3E0F531E540609E
:10093C0008A3E0F530A3E0F52FAF32AE31AD30AC0B
:0C094C002FAB2BAA2CA92D120649AF2EB0
:01095800227C
:10005600E4FF9004027403F00F7E00120BA3E53E4A
:0A0066002402FFE4353DFE120B7A80
:01007000226D
:060003008B288A29892ADE
:10000900E4FEFD9004027404F0EEC39F501EAB2879
:10001900AA29A92A8E827583001205D7FC74032E9A
:10002900F582E43404F583ECF00E80DDEF2401FF62
:0D003900E433FE120BA37F017E00120B7A50
:010046002297
:100C0C00E4F528FEEF547F4480900402F07F01123B
:090C1C000BA37F017E00120B7A8C
:010C250022AC
:050C6E00011D00C100A2
:080959008F288B298A2A892BC3
:10096100E4F52CF52DAF2C052C741E2FF582E43403
:1009710005F5837410F0AF2C052C741E2FF582E45D
:100981003405F583E528F0E4F52EAB29AA2AA92B35
:10099100852E827583001205D7FFE52EFDE52C2DEE
:1009A100FDE433FC741E2DF58274053CF583EFF0F4
:1009B100052EE52EB402D37F087E00120000E52843
:1009C100B452137F037E001200008F2D90049FE02C
:0809D100F515A3E0F51CAF2DA4
:0109D90022FB
:060500008B288A29892ADC
:10050600E4F52BF52CAF2B052B741E2FF582E43466
:1005160005F5837420F07F087E00120000E515259E
:100526001CFFE433CF2401CF3400FE1200008F2CD1
:10053600E52C60030205D4F52BE515251CFFE433F5
:10054600FEC3E52B9FEE6480F8748098501F749F5D
:10055600252BF582E43404F583E0AB28AA29A92AE1
:10056600852B82758300120616052B80CCE51C7040
:100576000EAB28AA29A92A852B82F583120616AB6B
:1005860028AA29A92A9000051205D7FF74017E0022
:10059600A807088005C333CE33CED8F9F51B8E1ACB
:1005A6009000061205D7540FFF74017E00A80708B5
:1005B6008005C333CE33CED8F9F5148E13900007D9
:1005C6001205D720E705E4F51D8003751D01AF2C44
:0105D6002202
:0409DA00AB05A907B9
:1009DE00E4FAAE2CAD2BAC2A852D318E308D2F8CBA
:1009EE002E0A241EF582E43405F5837430F00A7461
:1009FE001E2401F582E43405F583E9F00A741E2401
:100A0E0002F582E43405F583EBF00A741E2403F537
:100A1E0082E43405F583E531F00A741E2404F58270
:100A2E00E43405F583E530F0741E2405F582E434D4
:100A3E0005F583E52FF07F087E001200007F017E12
:040A4E000012000092
:010A52002281
:0A0261008B288A29892A8C2B8D2C0A
:10026B00E4F534F53BF53CAE31AD30AC2F8532388F
:10027B008E378D368C35E52C2532FBE52B3531FA57
:10028B00E43530F9E4352FF8E5192401FFE435188E
:10029B00FEE43517FDE43516FCC3120638700C74FA
:1002AB00FE252CF52C74FF352BF52BD3E52C940068
:1002BB00E52B94005003020409E4F533AF33053307
:1002CB00741E2FF582E43405F5837470F0AF33059B
:1002DB0033741E2FF582E43405F583E52DF0AF332F
:1002EB000533741E2FF582E43405F583E52EF0AF4C
:1002FB00330533741E2FF582E43405F583E538F0AE
:10030B00AF330533741E2FF582E43405F583E537DF
:10031B00F0AF330533741E2FF582E43405F583E516
:10032B0036F0D3E52C9514E52B951340088513393E
:10033B0085143A8006852B39852C3AAF33053374F7
:10034B001E2FF582E43405F583E53AF0AF33053320
:10035B00741E2FF582E43405F583E539F07F087EB2
:10036B00001200007F017E001200008F34E5346024
:10037B0003020406D200E4F533C3E533953AE49562
:10038B00395029AB28AA29A92A853C82853B83129F
:10039B0005D7FF741E2533F582E43405F583EFF0A2
:1003AB00053CE53C7002053B053380CDAF3AAE39D9
:1003BB00120000C200C3E52C953AF52CE52B9539BC
:1003CB00F52BD3E52C9400E52B940050030202B6D9
:1003DB00AE39AF3AE4FCFDE5382FF538E5373EF59D
:1003EB0037ED3536F536EC3535F5357F017E0012B8
:1003FB0000008F34E53470030202B6751E03E51E50
:0C040B0070087F01FE1200008F34AF3437
:0104170022C2
:060687008B288A29892A54
:10068D00E4FBF52B8F2F8E2E8D2D8C2C0B241EF530
:10069D0082E43405F5837460F00B741E2401F58239
:1006AD00E43405F583E52FF00B741E2402F582E486
:1006BD003405F583E52EF0741E2403F582E434052C
:1006CD00F583E52DF07F087E00120000E4F533F58B
:1006DD0032F531F530E51D70147F03FE1200008FE9
:1006ED002B90049FE0F533A3E0F532801B7F057E50
:1006FD00001200008F2B90049FE0F533A3E0F5323C
:10070D00A3E0F531A3E0F530AF33AE32AD31AC300F
:0B071D00AB28AA29A92A120649AF2B1D
:0107280022AE
:100ABA00E4241EF582E43405F5837440F0741E24A0
:100ACA0001F582E43405F583EFF0741E2402F58201
:100ADA00E43405F583EDF0741E2403F582E434054D
:100AEA00F583EBF0741E2404F582E43405F583E5FE
:100AFA002BF07F087E001200007F017E00120000AA
:010B0A0022C8
:100C560090051E7450F07F087E001200007F017E12
:040C66000012000078
:010C6A002267
:030C7300011E005F
:100B0B00ED601A24E0601124C0601724507033EF9D
:100B1B006402602E751E0222EF60278008EF6022B0
:100B2B008003EF6004751E0322AF0FAE0EAD0DAC4C
:100B3B000CAB0BAA0AA909A808C3120638600375E7
:030B4B001E042263
:100BEB00ED24FE600C14601224027014EF6011806F
:100BFB000CEF600C640260088003EF6003751E0746
:010C0B0022C6
:0A084C008E288F298B2A8A2B892C15
:10085600E5294528706A900929E0F530A3E0F52FCF
:10086600A3E0F52EE4F52D900491E0F534A3E0F530
:1008760033A3E0F532E4F531900485E0FF900921D9
:10088600E0B50738AF34AE33AD32AC31AB30AA2F5A
:10089600A92EA82DC31206387022AF30AE2FAD2E6A
:1008A600AC2DAB2AAA2BA92C120649AF30AE2FAD20
:1008B6002EAC2D8F198E188D178C1622751E0822B8
:0F08C600E529640245287004751E0A22751E0775
:0108D5002200
:090CBB00E5126F6003751E0922A9
:100C2600759810758D96538EF4438E08858D8B536B
:080C3600890F438920D28E22B0
:100B7A00E4FDFCC3ED9FEC9E50193098FD74002DE6
:100B8A00F58274003CF583E599F0C2980DBD000129
:080B9A000C80E0900000E0FF78
:010BA2002230
:100BA300E4FDFCC3ED9FEC9E5019C29974022DF530
:100BB30082E43404F583E0F5990DBD00010C20991E
:030BC300E280FBD2
:010BC600220C
:040CD60053D9BF220D
:090CC400120CB1120CA4020C2662
:0A0CB10075B28375FF8075EF022213
:0D0CA40075A41075A50275E10575E24022EA
:090CCD002090037F00227F012228
:100C7F00EF14600A14600A24027008C29122D29104
:040C8F0022B29122DA
:080C7600C1010141000142002F
:100C3E00E4F5A753D9BF120047120C93120BC7123B
:080C4E000B4ED2AFC29380FEF1
:100BC700AFA7E4F5A7F5D8F5D975DC49F5F9F5FA36
:100BD70075439C7544408544EB8543EC43E608D256
:030BE700DE8FA7F7
:010BEA0022E8
:0A004700AFA775A70F75A1C78FA71B
:01005100228C
:100C9300AFA775A70F75A50875D4FF75C7418FA7B3
:010CA300222E
:100B4E00AFA775A70F75C98043C940E4F5A775D344
:100B5E000C75D23875D30D75D24175D30B75D28005
:0B0B6E0075D30875D20C43E6808FA7FA
:010B79002259
:0300530002072978
:0B072900C0E0C0D075D000C006C007C3
:10073400AFA775A70030DA76C2DA74402544F544D1
:10074400749C3543F5438544EB8543EC30010875CF
:10075400D30843D201805AA294E433FEE5417011D8
:10076400BE010E75D30843D22075D30E75D2028014
:1007740028E54164017011EE700E75D30843D22050
:1007840075D30E75D2038011E541B5061D75D308E6
:1007940053D2DF75D30E75D20175D30BE5D254F065
:1007A4004401F5D275D30843D2018E41800353D856
:0307B400448FA7C8
:0907B700D007D006D0D0D0E0320A
:03007300020A532B
:0F0A5300C0E0C0D075D000C004C005C006C00709
:100A6200AFA775A70075D309AED275D308ADD275FD
:100A7200D30EACD2EE30E32B30E20C75D30A85D222
:100A8200210542D201801CEE30E018C201ED20E5C2
:100A920012BC010F75D300AED2BE0502D293BE04C2
:0B0AA20002C29375D30843D20C8FA74B
:0D0AAD00D007D006D005D004D0D0D0E03264
:030000000207C034
:0C07C000787FE4F6D8FD7581440208073C
:1005D700BB010CE58229F582E5833AF583E02250D9
:1005E70006E92582F8E622BBFE06E92582F8E22223
:0D05F700E58229F582E5833AF583E493223D
:10060400BB010689828A83F0225002F722BBFE01D5
:02061400F322CF
:10061600F8BB010DE58229F582E5833AF583E8F01A
:10062600225006E92582C8F622BBFE05E92582C8C6
:02063600F222AE
:10063800EB9FF5F0EA9E42F0E99D42F0E89C45F018
:01064800228F
:10064900BB010789828A8302066F5005E9F8020611
:0A06590063BBFE05E9F802067B22F0
:1007CC00020076E493A3F8E493A34003F68001F2CD
:1007DC0008DFF48029E493A3F85407240CC8C3332E
:1007EC00C4540F4420C8834004F456800146F6DFFD
:1007FC00E4800B0102040810204080900C6BE47E16
:10080C00019360BCA3FF543F30E509541FFEE493F1
:10081C00A360010ECF54C025E060A840B8E493A3B8
:10082C00FAE493A3F8E493A3C8C582C8CAC583CAE3
:10083C00F0A3C8C582C8CAC583CADFE9DEE780BE9B
:010C7E000075
:0C066300ECF608EDF608EEF608EFF622C3
:0C066F00ECF0A3EDF0A3EEF0A3EFF022FE
:0C067B00ECF208EDF208EEF208EFF222BB
:00000001FF
