:0C014100010C00010A00010B0001080184
:10011E0053D9BF12014E120158120003D2AFE50897
:10012E00B401FBE50C60F7E509B40DF2E4F508D275
:03013E009980EBBA
:0A014E0043A41075E10175E24022A0
:0701580075B28375EF04226C
:10000300759810758D96538EF4438E08858D8B539A
:10001300890F438920D28E75080143B810D2AC22D0
:030023000200B226
:1000B200C0E0C0D075D000C00030981DE50C7002C1
:1000C200F50AC298859909E50CC39440500B740D4A
:1000D200250AF8A609050C050A309939C299E50CDA
:1000E2006401602BE50CB50A03750B00740D250B3A
:1000F200F8E6F509C39461400DE509D3947A5006F8
:1001020074E02509F509850999050B150C8006751A
:0C0112000C00750801D000D0D0D0E03205
:03000000020026D5
:0C002600787FE4F6D8FD75814C02006D77
:1000320002011EE493A3F8E493A34003F68001F2C5
:1000420008DFF48029E493A3F85407240CC8C333CF
:10005200C4540F4420C8834004F456800146F6DF9E
:10006200E4800B0102040810204080900141E47EEC
:10007200019360BCA3FF543F30E509541FFEE49393
:10008200A360010ECF54C025E060A840B8E493A35A
:10009200FAE493A3F8E493A3C8C582C8CAC583CA85
:1000A200F0A3C8C582C8CAC583CADFE9DEE780BE3D
:01014D0000B1
:00000001FF
